{
  "contractName": "Doctor",
  "abi": [
    {
      "constant": true,
      "inputs": [
        {
          "name": "",
          "type": "bytes32"
        },
        {
          "name": "",
          "type": "address"
        }
      ],
      "name": "patients",
      "outputs": [
        {
          "name": "",
          "type": "address"
        }
      ],
      "payable": false,
      "stateMutability": "view",
      "type": "function"
    },
    {
      "constant": true,
      "inputs": [
        {
          "name": "",
          "type": "bytes32"
        }
      ],
      "name": "doctor",
      "outputs": [
        {
          "name": "fname",
          "type": "bytes32"
        },
        {
          "name": "lname",
          "type": "bytes32"
        },
        {
          "name": "full_name",
          "type": "bytes32"
        },
        {
          "name": "organization",
          "type": "bytes32"
        },
        {
          "name": "medical_license",
          "type": "bytes32"
        },
        {
          "name": "specialization",
          "type": "bytes32"
        },
        {
          "name": "exists",
          "type": "bool"
        }
      ],
      "payable": false,
      "stateMutability": "view",
      "type": "function"
    },
    {
      "inputs": [
        {
          "name": "_doctor_mnemonic",
          "type": "string"
        },
        {
          "name": "_fname",
          "type": "bytes32"
        },
        {
          "name": "_lname",
          "type": "bytes32"
        },
        {
          "name": "_full_name",
          "type": "bytes32"
        },
        {
          "name": "_organization",
          "type": "bytes32"
        },
        {
          "name": "_medical_license",
          "type": "bytes32"
        },
        {
          "name": "_specialization",
          "type": "bytes32"
        }
      ],
      "payable": false,
      "stateMutability": "nonpayable",
      "type": "constructor"
    },
    {
      "anonymous": false,
      "inputs": [
        {
          "indexed": false,
          "name": "patient",
          "type": "address"
        }
      ],
      "name": "_AddNewPatientInfo",
      "type": "event"
    },
    {
      "constant": false,
      "inputs": [
        {
          "name": "_doctor_mnemonic",
          "type": "string"
        },
        {
          "name": "_patient_mnemonic",
          "type": "string"
        },
        {
          "name": "_patient",
          "type": "address"
        }
      ],
      "name": "approvePatient",
      "outputs": [],
      "payable": false,
      "stateMutability": "nonpayable",
      "type": "function"
    },
    {
      "constant": false,
      "inputs": [
        {
          "name": "_doctor_mnemonic",
          "type": "string"
        },
        {
          "name": "_patient_address",
          "type": "address"
        },
        {
          "name": "_date_of_visit",
          "type": "bytes32"
        },
        {
          "name": "_doctor_name",
          "type": "bytes32"
        },
        {
          "name": "_organization",
          "type": "bytes32"
        },
        {
          "name": "_reason_of_visit",
          "type": "bytes32"
        },
        {
          "name": "_diagnosis",
          "type": "bytes32"
        },
        {
          "name": "_additional_info",
          "type": "bytes32"
        }
      ],
      "name": "addPatientInfo",
      "outputs": [],
      "payable": false,
      "stateMutability": "nonpayable",
      "type": "function"
    },
    {
      "constant": false,
      "inputs": [
        {
          "name": "_doctor_mnemonic",
          "type": "string"
        },
        {
          "name": "_patient_address",
          "type": "address"
        }
      ],
      "name": "getLastPatientInfo",
      "outputs": [
        {
          "name": "",
          "type": "bytes32"
        },
        {
          "name": "",
          "type": "bytes32"
        },
        {
          "name": "",
          "type": "bytes32"
        },
        {
          "name": "",
          "type": "bytes32"
        },
        {
          "name": "",
          "type": "bytes32"
        },
        {
          "name": "",
          "type": "bytes32"
        }
      ],
      "payable": false,
      "stateMutability": "nonpayable",
      "type": "function"
    },
    {
      "constant": false,
      "inputs": [
        {
          "name": "_doctor_mnemonic",
          "type": "string"
        },
        {
          "name": "_patient_address",
          "type": "address"
        },
        {
          "name": "N",
          "type": "uint256"
        }
      ],
      "name": "getNLastPatientInfo",
      "outputs": [
        {
          "name": "",
          "type": "bytes32"
        },
        {
          "name": "",
          "type": "bytes32"
        },
        {
          "name": "",
          "type": "bytes32"
        },
        {
          "name": "",
          "type": "bytes32"
        },
        {
          "name": "",
          "type": "bytes32"
        },
        {
          "name": "",
          "type": "bytes32"
        }
      ],
      "payable": false,
      "stateMutability": "nonpayable",
      "type": "function"
    }
  ],
  "bytecode": "0x60806040523480156200001157600080fd5b50604051620013ae380380620013ae833981018060405262000037919081019062000200565b620000416200013c565b8681600001818152505085816020018181525050848160400181815250508381606001818152505082816080018181525050818160a001818152505060018160c0019015159081151581525050600088604051602001620000a39190620002fd565b60405160208183030381529060405280519060200120905081600080838152602001908152602001600020600082015181600001556020820151816001015560408201518160020155606082015181600301556080820151816004015560a0820151816005015560c08201518160060160006101000a81548160ff021916908315150217905550905050505050505050505050620003e1565b6040518060e001604052806000801916815260200160008019168152602001600080191681526020016000801916815260200160008019168152602001600080191681526020016000151581525090565b6000815190506200019e81620003c7565b92915050565b600082601f830112620001b657600080fd5b8151620001cd620001c78262000344565b62000316565b91508082526020830160208301858383011115620001ea57600080fd5b620001f783828462000391565b50505092915050565b600080600080600080600060e0888a0312156200021c57600080fd5b600088015167ffffffffffffffff8111156200023757600080fd5b620002458a828b01620001a4565b9750506020620002588a828b016200018d565b96505060406200026b8a828b016200018d565b95505060606200027e8a828b016200018d565b9450506080620002918a828b016200018d565b93505060a0620002a48a828b016200018d565b92505060c0620002b78a828b016200018d565b91505092959891949750929550565b6000620002d38262000371565b620002df81856200037c565b9350620002f181856020860162000391565b80840191505092915050565b60006200030b8284620002c6565b915081905092915050565b6000604051905081810181811067ffffffffffffffff821117156200033a57600080fd5b8060405250919050565b600067ffffffffffffffff8211156200035c57600080fd5b601f19601f8301169050602081019050919050565b600081519050919050565b600081905092915050565b6000819050919050565b60005b83811015620003b157808201518184015260208101905062000394565b83811115620003c1576000848401525b50505050565b620003d28162000387565b8114620003de57600080fd5b50565b610fbd80620003f16000396000f3fe608060405234801561001057600080fd5b50600436106100625760003560e01c80633ae519da146100675780633d18dfe0146100835780637e466400146100b857806394bc6ac7146100d4578063ae9097b014610104578063b360373414610139575b600080fd5b610081600480360361007c9190810190610b15565b61016f565b005b61009d60048036036100989190810190610990565b6102e5565b6040516100af96959493929190610ca4565b60405180910390f35b6100d260048036036100cd91908101906109e4565b61040d565b005b6100ee60048036036100e99190810190610954565b610523565b6040516100fb9190610d74565b60405180910390f35b61011e60048036036101199190810190610aae565b610565565b60405161013096959493929190610ca4565b60405180910390f35b610153600480360361014e919081019061092b565b61069a565b6040516101669796959493929190610d05565b60405180910390f35b82600080826040516020016101849190610c72565b60405160208183030381529060405280519060200120815260200190815260200160002060060160009054906101000a900460ff16156102df578173ffffffffffffffffffffffffffffffffffffffff16636153f7cf846040518263ffffffff1660e01b81526004016101f79190610d8f565b600060405180830381600087803b15801561021157600080fd5b505af1158015610225573d6000803e3d6000fd5b5050505081600160008660405160200161023f9190610c72565b60405160208183030381529060405280519060200120815260200190815260200160002060008473ffffffffffffffffffffffffffffffffffffffff1673ffffffffffffffffffffffffffffffffffffffff16815260200190815260200160002060006101000a81548173ffffffffffffffffffffffffffffffffffffffff021916908373ffffffffffffffffffffffffffffffffffffffff1602179055505b50505050565b60008060008060008087600080826040516020016103039190610c72565b60405160208183030381529060405280519060200120815260200190815260200160002060060160009054906101000a900460ff16156104025760006103498a8a6106e9565b905061035361078a565b8173ffffffffffffffffffffffffffffffffffffffff1663aa8b1be36040518163ffffffff1660e01b815260040160c060405180830381600087803b15801561039b57600080fd5b505af11580156103af573d6000803e3d6000fd5b505050506040513d601f19601f820116820180604052506103d39190810190610b94565b9050806000015181602001518260400151836060015184608001518560a0015198509850985098509850985050505b509295509295509295565b87600080826040516020016104229190610c72565b60405160208183030381529060405280519060200120815260200190815260200160002060060160009054906101000a900460ff16156105185760006104688a8a6106e9565b90508073ffffffffffffffffffffffffffffffffffffffff1663c066016f8989898989896040518763ffffffff1660e01b81526004016104ad96959493929190610ca4565b600060405180830381600087803b1580156104c757600080fd5b505af11580156104db573d6000803e3d6000fd5b505050507f8bf1012ca11e88a7bd416bedb6f606d62684c0216b755c0b588a409ed0fc44be8960405161050e9190610c89565b60405180910390a1505b505050505050505050565b60016020528160005260406000206020528060005260406000206000915091509054906101000a900473ffffffffffffffffffffffffffffffffffffffff1681565b60008060008060008088600080826040516020016105839190610c72565b60405160208183030381529060405280519060200120815260200190815260200160002060060160009054906101000a900460ff161561068d5760006105c98b8b6106e9565b90506105d361078a565b8173ffffffffffffffffffffffffffffffffffffffff16632424fb528b6040518263ffffffff1660e01b815260040161060c9190610db1565b60c060405180830381600087803b15801561062657600080fd5b505af115801561063a573d6000803e3d6000fd5b505050506040513d601f19601f8201168201806040525061065e9190810190610b94565b9050806000015181602001518260400151836060015184608001518560a0015198509850985098509850985050505b5093975093979195509350565b60006020528060005260406000206000915090508060000154908060010154908060020154908060030154908060040154908060050154908060060160009054906101000a900460ff16905087565b600060016000846040516020016107009190610c72565b60405160208183030381529060405280519060200120815260200190815260200160002060008373ffffffffffffffffffffffffffffffffffffffff1673ffffffffffffffffffffffffffffffffffffffff16815260200190815260200160002060009054906101000a900473ffffffffffffffffffffffffffffffffffffffff16905092915050565b6040518060c001604052806000801916815260200160008019168152602001600080191681526020016000801916815260200160008019168152602001600080191681525090565b6000813590506107e181610f27565b92915050565b6000813590506107f681610f3e565b92915050565b60008151905061080b81610f3e565b92915050565b60008135905061082081610f55565b92915050565b600082601f83011261083757600080fd5b813561084a61084582610df9565b610dcc565b9150808252602083016020830185838301111561086657600080fd5b610871838284610ed4565b50505092915050565b600060c0828403121561088c57600080fd5b61089660c0610dcc565b905060006108a6848285016107fc565b60008301525060206108ba848285016107fc565b60208301525060406108ce848285016107fc565b60408301525060606108e2848285016107fc565b60608301525060806108f6848285016107fc565b60808301525060a061090a848285016107fc565b60a08301525092915050565b60008135905061092581610f6c565b92915050565b60006020828403121561093d57600080fd5b600061094b848285016107e7565b91505092915050565b6000806040838503121561096757600080fd5b6000610975858286016107e7565b9250506020610986858286016107d2565b9150509250929050565b600080604083850312156109a357600080fd5b600083013567ffffffffffffffff8111156109bd57600080fd5b6109c985828601610826565b92505060206109da858286016107d2565b9150509250929050565b600080600080600080600080610100898b031215610a0157600080fd5b600089013567ffffffffffffffff811115610a1b57600080fd5b610a278b828c01610826565b9850506020610a388b828c016107d2565b9750506040610a498b828c016107e7565b9650506060610a5a8b828c016107e7565b9550506080610a6b8b828c016107e7565b94505060a0610a7c8b828c016107e7565b93505060c0610a8d8b828c016107e7565b92505060e0610a9e8b828c016107e7565b9150509295985092959890939650565b600080600060608486031215610ac357600080fd5b600084013567ffffffffffffffff811115610add57600080fd5b610ae986828701610826565b9350506020610afa868287016107d2565b9250506040610b0b86828701610916565b9150509250925092565b600080600060608486031215610b2a57600080fd5b600084013567ffffffffffffffff811115610b4457600080fd5b610b5086828701610826565b935050602084013567ffffffffffffffff811115610b6d57600080fd5b610b7986828701610826565b9250506040610b8a86828701610811565b9150509250925092565b600060c08284031215610ba657600080fd5b6000610bb48482850161087a565b91505092915050565b610bc681610e4c565b82525050565b610bd581610e5e565b82525050565b610be481610e6a565b82525050565b610bf381610eb0565b82525050565b6000610c0482610e25565b610c0e8185610e30565b9350610c1e818560208601610ee3565b610c2781610f16565b840191505092915050565b6000610c3d82610e25565b610c478185610e41565b9350610c57818560208601610ee3565b80840191505092915050565b610c6c81610ea6565b82525050565b6000610c7e8284610c32565b915081905092915050565b6000602082019050610c9e6000830184610bbd565b92915050565b600060c082019050610cb96000830189610bdb565b610cc66020830188610bdb565b610cd36040830187610bdb565b610ce06060830186610bdb565b610ced6080830185610bdb565b610cfa60a0830184610bdb565b979650505050505050565b600060e082019050610d1a600083018a610bdb565b610d276020830189610bdb565b610d346040830188610bdb565b610d416060830187610bdb565b610d4e6080830186610bdb565b610d5b60a0830185610bdb565b610d6860c0830184610bcc565b98975050505050505050565b6000602082019050610d896000830184610bea565b92915050565b60006020820190508181036000830152610da98184610bf9565b905092915050565b6000602082019050610dc66000830184610c63565b92915050565b6000604051905081810181811067ffffffffffffffff82111715610def57600080fd5b8060405250919050565b600067ffffffffffffffff821115610e1057600080fd5b601f19601f8301169050602081019050919050565b600081519050919050565b600082825260208201905092915050565b600081905092915050565b6000610e5782610e86565b9050919050565b60008115159050919050565b6000819050919050565b6000610e7f82610e4c565b9050919050565b600073ffffffffffffffffffffffffffffffffffffffff82169050919050565b6000819050919050565b6000610ebb82610ec2565b9050919050565b6000610ecd82610e86565b9050919050565b82818337600083830152505050565b60005b83811015610f01578082015181840152602081019050610ee6565b83811115610f10576000848401525b50505050565b6000601f19601f8301169050919050565b610f3081610e4c565b8114610f3b57600080fd5b50565b610f4781610e6a565b8114610f5257600080fd5b50565b610f5e81610e74565b8114610f6957600080fd5b50565b610f7581610ea6565b8114610f8057600080fd5b5056fea265627a7a72305820a6143f4de8e68a03e7aa95cf9b9f7cb5b3cf133e34b634ede1e5cffad7ed34b86c6578706572696d656e74616cf50037",
  "source": "pragma solidity ^0.5.8;\npragma experimental ABIEncoderV2;\nimport \"./Info.sol\";\nimport \"./PatientInfo.sol\";\nimport \"./Patient.sol\";\n\ncontract Doctor {\n\n    struct DoctorConstantData {\n        bytes32 fname;\n        bytes32 lname;\n\tbytes32 full_name;\n        bytes32 organization;\n        bytes32 medical_license;\n        bytes32 specialization;\n\tbool exists;\n    }\n\n    mapping (bytes32 => DoctorConstantData) public doctor;\n    mapping (bytes32 => mapping (address => Patient)) public patients; // all the patients this doctor oversees\n\n    modifier correct_key(string memory _doctor_mnemonic) {\n\tif (doctor[keccak256(abi.encodePacked(_doctor_mnemonic))].exists) _;\n    }\n\n    event _AddNewPatientInfo(address patient);\n\n    constructor(string memory _doctor_mnemonic,\n                bytes32 _fname,\n                bytes32 _lname,\n\t\tbytes32 _full_name,\n                bytes32 _organization,\n                bytes32 _medical_license,\n                bytes32 _specialization) public {\n\n        DoctorConstantData memory doctor_info;\n        doctor_info.fname = _fname;\n        doctor_info.lname = _lname;\n\tdoctor_info.full_name = _full_name;\n        doctor_info.organization = _organization;\n        doctor_info.medical_license = _medical_license;\n        doctor_info.specialization = _specialization;\n\tdoctor_info.exists = true;\n\n        bytes32 doctor_key = keccak256(abi.encodePacked(_doctor_mnemonic));\n        doctor[doctor_key] = doctor_info;\n    }\n    \n    function approvePatient(string memory _doctor_mnemonic, string memory _patient_mnemonic, Patient _patient) correct_key(_doctor_mnemonic) public {\n\t_patient.addApprovedDoctor(_patient_mnemonic);\n\tpatients[keccak256(abi.encodePacked(_doctor_mnemonic))][address(_patient)] = _patient;\t\n    }\n\n    function addPatientInfo(string memory _doctor_mnemonic, \n\t\t\t    address _patient_address,\n\t\t\t    bytes32 _date_of_visit,\n\t\t\t    bytes32 _doctor_name,\n\t\t\t    bytes32 _organization,\n\t\t\t    bytes32 _reason_of_visit,\n\t\t\t    bytes32 _diagnosis,\n\t\t\t    bytes32 _additional_info) public correct_key(_doctor_mnemonic) {\n\tPatient patient = getPatient(_doctor_mnemonic, _patient_address);\n\t\n\tpatient.addPatientInfo(_date_of_visit,\n\t\t\t       _doctor_name,\n\t\t\t       _organization,\n\t\t\t       _reason_of_visit,\n\t\t\t       _diagnosis,\n\t\t\t       _additional_info);\n\n\temit _AddNewPatientInfo(_patient_address);\n    }\n\n    function getLastPatientInfo(string memory _doctor_mnemonic, address _patient_address) public\n    correct_key(_doctor_mnemonic) returns(bytes32, bytes32, bytes32, bytes32, bytes32, bytes32) {\n\tPatient patient = getPatient(_doctor_mnemonic, _patient_address);\n\t\n\tInfo.patient_info memory info = patient.getLastPatientInfo();\n\treturn (info.date_of_visit,\n\t\tinfo.doctor_name,\n\t\tinfo.organization,\n\t\tinfo.reason_of_visit,\n\t\tinfo.diagnosis,\n\t\tinfo.additional_info);\n    }\n\n    function getNLastPatientInfo(string memory _doctor_mnemonic, address _patient_address, uint N) public correct_key(_doctor_mnemonic) returns(bytes32, bytes32, bytes32, bytes32, bytes32, bytes32) {\n\tPatient patient = getPatient(_doctor_mnemonic, _patient_address);\n\n\tInfo.patient_info memory info = patient.getNLastPatientInfo(N);\n\treturn (info.date_of_visit,\n\t\tinfo.doctor_name,\n\t\tinfo.organization,\n\t\tinfo.reason_of_visit,\n\t\tinfo.diagnosis,\n\t\tinfo.additional_info);\n    }\n\n    function getPatient(string memory _doctor_mnemonic, address _patient_address) internal view returns (Patient patient) {\n\treturn patients[keccak256(abi.encodePacked(_doctor_mnemonic))][_patient_address];\n    }\n\n}\n\n\n\n\n\n\n\n\n",
  "sourcePath": "/Users/othmanbichouna/Desktop/Projects/Ethereum/SBUHacks-Med-Ethereum/src/contracts/Doctor.sol",
  "compiler": {
    "name": "solc",
    "version": "0.5.8+commit.23d335f2.Emscripten.clang"
  },
  "schemaVersion": "3.0.16",
  "updatedAt": "2019-09-21T14:23:20.973Z",
  "devdoc": {
    "methods": {}
  },
  "userdoc": {
    "methods": {}
  }
}