{
  "contractName": "PatientInfo",
  "abi": [
    {
      "constant": true,
      "inputs": [],
      "name": "owner",
      "outputs": [
        {
          "name": "",
          "type": "address"
        }
      ],
      "payable": false,
      "stateMutability": "view",
      "type": "function"
    },
    {
      "constant": true,
      "inputs": [],
      "name": "patient_info",
      "outputs": [
        {
          "name": "date_of_visit",
          "type": "bytes32"
        },
        {
          "name": "doctor_name",
          "type": "bytes32"
        },
        {
          "name": "organization",
          "type": "bytes32"
        },
        {
          "name": "reason_of_visit",
          "type": "bytes32"
        },
        {
          "name": "diagnosis",
          "type": "bytes32"
        },
        {
          "name": "additional_info",
          "type": "bytes32"
        }
      ],
      "payable": false,
      "stateMutability": "view",
      "type": "function"
    },
    {
      "inputs": [
        {
          "name": "_date_of_visit",
          "type": "bytes32"
        },
        {
          "name": "_doctor_name",
          "type": "bytes32"
        },
        {
          "name": "_organization",
          "type": "bytes32"
        },
        {
          "name": "_reason_of_visit",
          "type": "bytes32"
        },
        {
          "name": "_diagnosis",
          "type": "bytes32"
        },
        {
          "name": "_additional_info",
          "type": "bytes32"
        }
      ],
      "payable": false,
      "stateMutability": "nonpayable",
      "type": "constructor"
    },
    {
      "anonymous": false,
      "inputs": [
        {
          "indexed": false,
          "name": "owner",
          "type": "address"
        }
      ],
      "name": "_PatientInfoCreated",
      "type": "event"
    },
    {
      "constant": false,
      "inputs": [],
      "name": "getInfo",
      "outputs": [
        {
          "components": [
            {
              "name": "date_of_visit",
              "type": "bytes32"
            },
            {
              "name": "doctor_name",
              "type": "bytes32"
            },
            {
              "name": "organization",
              "type": "bytes32"
            },
            {
              "name": "reason_of_visit",
              "type": "bytes32"
            },
            {
              "name": "diagnosis",
              "type": "bytes32"
            },
            {
              "name": "additional_info",
              "type": "bytes32"
            }
          ],
          "name": "info",
          "type": "tuple"
        }
      ],
      "payable": false,
      "stateMutability": "nonpayable",
      "type": "function"
    }
  ],
  "bytecode": "0x608060405234801561001057600080fd5b5060405160c08061066b833981018060405261002f91908101906101b6565b336000806101000a81548173ffffffffffffffffffffffffffffffffffffffff021916908373ffffffffffffffffffffffffffffffffffffffff160217905550610077610159565b8681600001818152505085816020018181525050848160400181815250508381606001818152505082816080018181525050818160a0018181525050806001600082015181600001556020820151816001015560408201518160020155606082015181600301556080820151816004015560a082015181600501559050507fc6868b3e5f4c8fd35ec5ad87bc1f012a59a62d9408e6a2e6ea71f66776d610f06000809054906101000a900473ffffffffffffffffffffffffffffffffffffffff16604051610145919061024e565b60405180910390a1505050505050506102bc565b6040518060c001604052806000801916815260200160008019168152602001600080191681526020016000801916815260200160008019168152602001600080191681525090565b6000815190506101b0816102a5565b92915050565b60008060008060008060c087890312156101cf57600080fd5b60006101dd89828a016101a1565b96505060206101ee89828a016101a1565b95505060406101ff89828a016101a1565b945050606061021089828a016101a1565b935050608061022189828a016101a1565b92505060a061023289828a016101a1565b9150509295509295509295565b61024881610269565b82525050565b6000602082019050610263600083018461023f565b92915050565b600061027482610285565b9050919050565b6000819050919050565b600073ffffffffffffffffffffffffffffffffffffffff82169050919050565b6102ae8161027b565b81146102b957600080fd5b50565b6103a0806102cb6000396000f3fe608060405234801561001057600080fd5b50600436106100415760003560e01c80635a9b0b89146100465780638da5cb5b146100645780639a04ee0e14610082575b600080fd5b61004e6100a5565b60405161005b919061030f565b60405180910390f35b61006c610154565b6040516100799190610293565b60405180910390f35b61008a610179565b60405161009c969594939291906102ae565b60405180910390f35b6100ad6101a3565b6000809054906101000a900473ffffffffffffffffffffffffffffffffffffffff1673ffffffffffffffffffffffffffffffffffffffff163373ffffffffffffffffffffffffffffffffffffffff161461010657600080fd5b60016040518060c00160405290816000820154815260200160018201548152602001600282015481526020016003820154815260200160048201548152602001600582015481525050905090565b6000809054906101000a900473ffffffffffffffffffffffffffffffffffffffff1681565b60018060000154908060010154908060020154908060030154908060040154908060050154905086565b6040518060c001604052806000801916815260200160008019168152602001600080191681526020016000801916815260200160008019168152602001600080191681525090565b6101f48161032a565b82525050565b6102038161033c565b82525050565b6102128161033c565b82525050565b60c08201600082015161022e60008501826101fa565b50602082015161024160208501826101fa565b50604082015161025460408501826101fa565b50606082015161026760608501826101fa565b50608082015161027a60808501826101fa565b5060a082015161028d60a08501826101fa565b50505050565b60006020820190506102a860008301846101eb565b92915050565b600060c0820190506102c36000830189610209565b6102d06020830188610209565b6102dd6040830187610209565b6102ea6060830186610209565b6102f76080830185610209565b61030460a0830184610209565b979650505050505050565b600060c0820190506103246000830184610218565b92915050565b600061033582610346565b9050919050565b6000819050919050565b600073ffffffffffffffffffffffffffffffffffffffff8216905091905056fea265627a7a72305820ebcb34a3ba4d0a892e76485074589831fcd7fad37300e469cba613c5dacaf0026c6578706572696d656e74616cf50037",
  "source": "pragma solidity ^0.5.8;\npragma experimental ABIEncoderV2;\nimport \"./Info.sol\";\n\ncontract PatientInfo {\n    address public owner;\n\n    Info.patient_info public patient_info;\n    event _PatientInfoCreated(address owner);\n\n    constructor(bytes32 _date_of_visit, \n\t\tbytes32 _doctor_name, \n\t\tbytes32 _organization,\n\t        bytes32 _reason_of_visit,\n\t        bytes32 _diagnosis,\n\t        bytes32 _additional_info) public {\n\n\towner = msg.sender;\n\n\tInfo.patient_info memory info;\n\tinfo.date_of_visit = _date_of_visit;\n\tinfo.doctor_name = _doctor_name;\n\tinfo.organization = _organization;\n\tinfo.reason_of_visit = _reason_of_visit;\n\tinfo.diagnosis = _diagnosis;\n\tinfo.additional_info = _additional_info;\n\n\tpatient_info = info;\n\n\temit _PatientInfoCreated(owner);\n    }\n\n    function getInfo() public returns(Info.patient_info memory info) {\n\trequire(msg.sender == owner);\n\n\treturn patient_info;\n    }\n}\n",
  "sourcePath": "/Users/othmanbichouna/Desktop/Projects/Ethereum/SBUHacks-Med-Ethereum/src/contracts/PatientInfo.sol",
  "compiler": {
    "name": "solc",
    "version": "0.5.8+commit.23d335f2.Emscripten.clang"
  },
  "schemaVersion": "3.0.16",
  "updatedAt": "2019-09-21T14:23:20.985Z",
  "devdoc": {
    "methods": {}
  },
  "userdoc": {
    "methods": {}
  }
}