{
  "contractName": "PatientFactory",
  "abi": [
    {
      "inputs": [],
      "payable": false,
      "stateMutability": "nonpayable",
      "type": "constructor"
    },
    {
      "anonymous": false,
      "inputs": [
        {
          "indexed": false,
          "name": "x",
          "type": "address"
        }
      ],
      "name": "_ContractCreation",
      "type": "event"
    },
    {
      "anonymous": false,
      "inputs": [
        {
          "indexed": false,
          "name": "Patient",
          "type": "address"
        }
      ],
      "name": "_PatientCreated",
      "type": "event"
    },
    {
      "constant": false,
      "inputs": [
        {
          "name": "_mnemonic",
          "type": "string"
        },
        {
          "name": "_fname",
          "type": "bytes32"
        },
        {
          "name": "_lname",
          "type": "bytes32"
        },
        {
          "name": "_date_of_birth",
          "type": "bytes32"
        },
        {
          "name": "_ethnicity",
          "type": "bytes32"
        },
        {
          "name": "_patient_address",
          "type": "bytes32"
        }
      ],
      "name": "newPatient",
      "outputs": [],
      "payable": false,
      "stateMutability": "nonpayable",
      "type": "function"
    }
  ],
  "bytecode": "0x608060405234801561001057600080fd5b507fb1a53a365c37ebe6457722023663d85eafeca536236e05a6b7e4479d4a62878830604051808273ffffffffffffffffffffffffffffffffffffffff1673ffffffffffffffffffffffffffffffffffffffff16815260200191505060405180910390a16120e8806100836000396000f3fe608060405234801561001057600080fd5b506004361061002b5760003560e01c80631c7b29ba14610030575b600080fd5b61011b600480360360c081101561004657600080fd5b810190808035906020019064010000000081111561006357600080fd5b82018360208201111561007557600080fd5b8035906020019184600183028401116401000000008311171561009757600080fd5b91908080601f016020809104026020016040519081016040528093929190818152602001838380828437600081840152601f19601f820116905080830192505050505050509192919290803590602001909291908035906020019092919080359060200190929190803590602001909291908035906020019092919050505061011d565b005b60008686868686866040516101319061024e565b8080602001878152602001868152602001858152602001848152602001838152602001828103825288818151815260200191508051906020019080838360005b8381101561018c578082015181840152602081019050610171565b50505050905090810190601f1680156101b95780820380516001836020036101000a031916815260200191505b50975050505050505050604051809103906000f0801580156101df573d6000803e3d6000fd5b5090507f7a74ce7a49331ae21669ad4310155f968651955cdb40a0681ec1a8bf74308d6181604051808273ffffffffffffffffffffffffffffffffffffffff1673ffffffffffffffffffffffffffffffffffffffff16815260200191505060405180910390a150505050505050565b611e618061025c8339019056fe60806040523480156200001157600080fd5b5060405162001e6138038062001e6183398101806040526200003791908101906200020d565b6200004162000153565b858160000181815250508481602001818152505083816040018181525050828160600181815250508181608001818152505060018160a0019015159081151581525050600087604051602001620000999190620002f3565b60405160208183030381529060405280519060200120905081600080838152602001908152602001600020600082015181600001556020820151816001015560408201518160020155606082015181600301556080820151816004015560a08201518160050160006101000a81548160ff0219169083151502179055509050507f3b7eb70db0b9682c43451be877df3d8326ea1a0290e15d60e1ed695e87f2fb5360405160405180910390a15050505050505050620003d7565b6040518060c0016040528060008019168152602001600080191681526020016000801916815260200160008019168152602001600080191681526020016000151581525090565b600081519050620001ab81620003bd565b92915050565b600082601f830112620001c357600080fd5b8151620001da620001d4826200033a565b6200030c565b91508082526020830160208301858383011115620001f757600080fd5b6200020483828462000387565b50505092915050565b60008060008060008060c087890312156200022757600080fd5b600087015167ffffffffffffffff8111156200024257600080fd5b6200025089828a01620001b1565b96505060206200026389828a016200019a565b95505060406200027689828a016200019a565b94505060606200028989828a016200019a565b93505060806200029c89828a016200019a565b92505060a0620002af89828a016200019a565b9150509295509295509295565b6000620002c98262000367565b620002d5818562000372565b9350620002e781856020860162000387565b80840191505092915050565b6000620003018284620002bc565b915081905092915050565b6000604051905081810181811067ffffffffffffffff821117156200033057600080fd5b8060405250919050565b600067ffffffffffffffff8211156200035257600080fd5b601f19601f8301169050602081019050919050565b600081519050919050565b600081905092915050565b6000819050919050565b60005b83811015620003a75780820151818401526020810190506200038a565b83811115620003b7576000848401525b50505050565b620003c8816200037d565b8114620003d457600080fd5b50565b611a7a80620003e76000396000f3fe60806040523480156200001157600080fd5b5060043610620000e25760003560e01c8063638eb2f21162000099578063aa8b1be3116200006f578063aa8b1be314620002a8578063bbaefd0514620002ca578063c066016f1462000300578063ca987a30146200032057620000e2565b8063638eb2f214620002065780637cc10279146200023c57806398a41ff9146200027257620000e2565b80631a96839714620000e757806322dc12fe14620001225780632424fb52146200015857806324f5a7ac146200018e578063409e90ea14620001c45780636153f7cf14620001e6575b600080fd5b620001056004803603620000ff919081019062000e23565b62000356565b604051620001199695949392919062001105565b60405180910390f35b6200014060048036036200013a919081019062000ee5565b6200039f565b6040516200014f9190620010e8565b60405180910390f35b62000176600480360362000170919081019062000f56565b6200043a565b604051620001859190620011fc565b60405180910390f35b620001ac6004803603620001a6919081019062000ee5565b62000577565b604051620001bb9190620010e8565b60405180910390f35b620001ce62000612565b604051620001dd9190620010cb565b60405180910390f35b620002046004803603620001fe919081019062000ee5565b62000671565b005b6200022460048036036200021e919081019062000df7565b62000759565b604051620002339190620010cb565b60405180910390f35b6200025a600480360362000254919081019062000ee5565b62000779565b604051620002699190620010e8565b60405180910390f35b6200029060048036036200028a919081019062000ee5565b62000814565b6040516200029f9190620010e8565b60405180910390f35b620002b2620008af565b604051620002c19190620011fc565b60405180910390f35b620002e86004803603620002e2919081019062000f56565b62000a60565b604051620002f79190620011df565b60405180910390f35b6200031e600480360362000318919081019062000e4f565b62000a9d565b005b6200033e600480360362000338919081019062000ee5565b62000ba3565b6040516200034d9190620010e8565b60405180910390f35b60006020528060005260406000206000915090508060000154908060010154908060020154908060030154908060040154908060050160009054906101000a900460ff16905086565b60008160008082604051602001620003b8919062001095565b60405160208183030381529060405280519060200120815260200190815260200160002060050160009054906101000a900460ff161562000434576000808460405160200162000409919062001095565b6040516020818303038152906040528051906020012081526020019081526020016000206003015491505b50919050565b6200044462000c3e565b33600260008273ffffffffffffffffffffffffffffffffffffffff1673ffffffffffffffffffffffffffffffffffffffff16815260200190815260200160002060009054906101000a900460ff16156200057157600180549050831115620004ab57600080fd5b6001836001805490500381548110620004c057fe5b9060005260206000200160009054906101000a900473ffffffffffffffffffffffffffffffffffffffff1673ffffffffffffffffffffffffffffffffffffffff16635a9b0b896040518163ffffffff1660e01b815260040160c060405180830381600087803b1580156200053357600080fd5b505af115801562000548573d6000803e3d6000fd5b505050506040513d601f19601f820116820180604052506200056e919081019062000f2a565b91505b50919050565b6000816000808260405160200162000590919062001095565b60405160208183030381529060405280519060200120815260200190815260200160002060050160009054906101000a900460ff16156200060c5760008084604051602001620005e1919062001095565b6040516020818303038152906040528051906020012081526020019081526020016000206000015491505b50919050565b600033600260008273ffffffffffffffffffffffffffffffffffffffff1673ffffffffffffffffffffffffffffffffffffffff16815260200190815260200160002060009054906101000a900460ff16156200066d57600191505b5090565b806000808260405160200162000688919062001095565b60405160208183030381529060405280519060200120815260200190815260200160002060050160009054906101000a900460ff161562000755576001600260003373ffffffffffffffffffffffffffffffffffffffff1673ffffffffffffffffffffffffffffffffffffffff16815260200190815260200160002060006101000a81548160ff0219169083151502179055507f7bef9e56557c376fe3882a39ab2788f12008933e1886f677f9d23a447378750c336040516200074c9190620010ae565b60405180910390a15b5050565b60026020528060005260406000206000915054906101000a900460ff1681565b6000816000808260405160200162000792919062001095565b60405160208183030381529060405280519060200120815260200190815260200160002060050160009054906101000a900460ff16156200080e5760008084604051602001620007e3919062001095565b6040516020818303038152906040528051906020012081526020019081526020016000206002015491505b50919050565b600081600080826040516020016200082d919062001095565b60405160208183030381529060405280519060200120815260200190815260200160002060050160009054906101000a900460ff1615620008a957600080846040516020016200087e919062001095565b6040516020818303038152906040528051906020012081526020019081526020016000206001015491505b50919050565b620008b962000c3e565b33600260008273ffffffffffffffffffffffffffffffffffffffff1673ffffffffffffffffffffffffffffffffffffffff16815260200190815260200160002060009054906101000a900460ff161562000a5c576000600180549050116200092057600080fd5b7f429b085d100fc014f27de1c3bdd0c08b45364c73f97f333d2ba3c4d5d8bca88b600180808054905003815481106200095557fe5b9060005260206000200160009054906101000a900473ffffffffffffffffffffffffffffffffffffffff166040516200098f9190620011df565b60405180910390a160018080805490500381548110620009ab57fe5b9060005260206000200160009054906101000a900473ffffffffffffffffffffffffffffffffffffffff1673ffffffffffffffffffffffffffffffffffffffff16635a9b0b896040518163ffffffff1660e01b815260040160c060405180830381600087803b15801562000a1e57600080fd5b505af115801562000a33573d6000803e3d6000fd5b505050506040513d601f19601f8201168201806040525062000a59919081019062000f2a565b91505b5090565b6001818154811062000a6e57fe5b906000526020600020016000915054906101000a900473ffffffffffffffffffffffffffffffffffffffff1681565b33600260008273ffffffffffffffffffffffffffffffffffffffff1673ffffffffffffffffffffffffffffffffffffffff16815260200190815260200160002060009054906101000a900460ff161562000b9a57600187878787878760405162000b079062000c86565b62000b189695949392919062001172565b604051809103906000f08015801562000b35573d6000803e3d6000fd5b5090806001815401808255809150509060018203906000526020600020016000909192909190916101000a81548173ffffffffffffffffffffffffffffffffffffffff021916908373ffffffffffffffffffffffffffffffffffffffff160217905550505b50505050505050565b6000816000808260405160200162000bbc919062001095565b60405160208183030381529060405280519060200120815260200190815260200160002060050160009054906101000a900460ff161562000c38576000808460405160200162000c0d919062001095565b6040516020818303038152906040528051906020012081526020019081526020016000206004015491505b50919050565b6040518060c001604052806000801916815260200160008019168152602001600080191681526020016000801916815260200160008019168152602001600080191681525090565b61066b80620013d683390190565b60008135905062000ca58162001387565b92915050565b60008135905062000cbc81620013a1565b92915050565b60008151905062000cd381620013a1565b92915050565b600082601f83011262000ceb57600080fd5b813562000d0262000cfc8262001247565b62001219565b9150808252602083016020830185838301111562000d1f57600080fd5b62000d2c83828462001342565b50505092915050565b600060c0828403121562000d4857600080fd5b62000d5460c062001219565b9050600062000d668482850162000cc2565b600083015250602062000d7c8482850162000cc2565b602083015250604062000d928482850162000cc2565b604083015250606062000da88482850162000cc2565b606083015250608062000dbe8482850162000cc2565b60808301525060a062000dd48482850162000cc2565b60a08301525092915050565b60008135905062000df181620013bb565b92915050565b60006020828403121562000e0a57600080fd5b600062000e1a8482850162000c94565b91505092915050565b60006020828403121562000e3657600080fd5b600062000e468482850162000cab565b91505092915050565b60008060008060008060c0878903121562000e6957600080fd5b600062000e7989828a0162000cab565b965050602062000e8c89828a0162000cab565b955050604062000e9f89828a0162000cab565b945050606062000eb289828a0162000cab565b935050608062000ec589828a0162000cab565b92505060a062000ed889828a0162000cab565b9150509295509295509295565b60006020828403121562000ef857600080fd5b600082013567ffffffffffffffff81111562000f1357600080fd5b62000f218482850162000cd9565b91505092915050565b600060c0828403121562000f3d57600080fd5b600062000f4d8482850162000d35565b91505092915050565b60006020828403121562000f6957600080fd5b600062000f798482850162000de0565b91505092915050565b62000f8d81620012de565b82525050565b62000f9e816200129e565b82525050565b62000faf81620012aa565b82525050565b62000fc081620012aa565b82525050565b62000fd181620012f2565b82525050565b600062000fe48262001274565b62000ff081856200127f565b93506200100281856020860162001351565b80840191505092915050565b60c08201600082015162001026600085018262000fa4565b5060208201516200103b602085018262000fa4565b50604082015162001050604085018262000fa4565b50606082015162001065606085018262000fa4565b5060808201516200107a608085018262000fa4565b5060a08201516200108f60a085018262000fa4565b50505050565b6000620010a3828462000fd7565b915081905092915050565b6000602082019050620010c5600083018462000f82565b92915050565b6000602082019050620010e2600083018462000f93565b92915050565b6000602082019050620010ff600083018462000fb5565b92915050565b600060c0820190506200111c600083018962000fb5565b6200112b602083018862000fb5565b6200113a604083018762000fb5565b62001149606083018662000fb5565b62001158608083018562000fb5565b6200116760a083018462000f93565b979650505050505050565b600060c08201905062001189600083018962000fb5565b62001198602083018862000fb5565b620011a7604083018762000fb5565b620011b6606083018662000fb5565b620011c5608083018562000fb5565b620011d460a083018462000fb5565b979650505050505050565b6000602082019050620011f6600083018462000fc6565b92915050565b600060c0820190506200121360008301846200100e565b92915050565b6000604051905081810181811067ffffffffffffffff821117156200123d57600080fd5b8060405250919050565b600067ffffffffffffffff8211156200125f57600080fd5b601f19601f8301169050602081019050919050565b600081519050919050565b600081905092915050565b60006200129782620012b4565b9050919050565b60008115159050919050565b6000819050919050565b600073ffffffffffffffffffffffffffffffffffffffff82169050919050565b6000819050919050565b6000620012eb826200131a565b9050919050565b6000620012ff8262001306565b9050919050565b60006200131382620012b4565b9050919050565b600062001327826200132e565b9050919050565b60006200133b82620012b4565b9050919050565b82818337600083830152505050565b60005b838110156200137157808201518184015260208101905062001354565b8381111562001381576000848401525b50505050565b62001392816200128a565b81146200139e57600080fd5b50565b620013ac81620012aa565b8114620013b857600080fd5b50565b620013c681620012d4565b8114620013d257600080fd5b5056fe608060405234801561001057600080fd5b5060405160c08061066b833981018060405261002f91908101906101b6565b336000806101000a81548173ffffffffffffffffffffffffffffffffffffffff021916908373ffffffffffffffffffffffffffffffffffffffff160217905550610077610159565b8681600001818152505085816020018181525050848160400181815250508381606001818152505082816080018181525050818160a0018181525050806001600082015181600001556020820151816001015560408201518160020155606082015181600301556080820151816004015560a082015181600501559050507fc6868b3e5f4c8fd35ec5ad87bc1f012a59a62d9408e6a2e6ea71f66776d610f06000809054906101000a900473ffffffffffffffffffffffffffffffffffffffff16604051610145919061024e565b60405180910390a1505050505050506102bc565b6040518060c001604052806000801916815260200160008019168152602001600080191681526020016000801916815260200160008019168152602001600080191681525090565b6000815190506101b0816102a5565b92915050565b60008060008060008060c087890312156101cf57600080fd5b60006101dd89828a016101a1565b96505060206101ee89828a016101a1565b95505060406101ff89828a016101a1565b945050606061021089828a016101a1565b935050608061022189828a016101a1565b92505060a061023289828a016101a1565b9150509295509295509295565b61024881610269565b82525050565b6000602082019050610263600083018461023f565b92915050565b600061027482610285565b9050919050565b6000819050919050565b600073ffffffffffffffffffffffffffffffffffffffff82169050919050565b6102ae8161027b565b81146102b957600080fd5b50565b6103a0806102cb6000396000f3fe608060405234801561001057600080fd5b50600436106100415760003560e01c80635a9b0b89146100465780638da5cb5b146100645780639a04ee0e14610082575b600080fd5b61004e6100a5565b60405161005b919061030f565b60405180910390f35b61006c610154565b6040516100799190610293565b60405180910390f35b61008a610179565b60405161009c969594939291906102ae565b60405180910390f35b6100ad6101a3565b6000809054906101000a900473ffffffffffffffffffffffffffffffffffffffff1673ffffffffffffffffffffffffffffffffffffffff163373ffffffffffffffffffffffffffffffffffffffff161461010657600080fd5b60016040518060c00160405290816000820154815260200160018201548152602001600282015481526020016003820154815260200160048201548152602001600582015481525050905090565b6000809054906101000a900473ffffffffffffffffffffffffffffffffffffffff1681565b60018060000154908060010154908060020154908060030154908060040154908060050154905086565b6040518060c001604052806000801916815260200160008019168152602001600080191681526020016000801916815260200160008019168152602001600080191681525090565b6101f48161032a565b82525050565b6102038161033c565b82525050565b6102128161033c565b82525050565b60c08201600082015161022e60008501826101fa565b50602082015161024160208501826101fa565b50604082015161025460408501826101fa565b50606082015161026760608501826101fa565b50608082015161027a60808501826101fa565b5060a082015161028d60a08501826101fa565b50505050565b60006020820190506102a860008301846101eb565b92915050565b600060c0820190506102c36000830189610209565b6102d06020830188610209565b6102dd6040830187610209565b6102ea6060830186610209565b6102f76080830185610209565b61030460a0830184610209565b979650505050505050565b600060c0820190506103246000830184610218565b92915050565b600061033582610346565b9050919050565b6000819050919050565b600073ffffffffffffffffffffffffffffffffffffffff8216905091905056fea265627a7a72305820ebcb34a3ba4d0a892e76485074589831fcd7fad37300e469cba613c5dacaf0026c6578706572696d656e74616cf50037a265627a7a7230582017820bdd8b874fbf99a4a7d7d5175af86242ddd2bc6111de7b8bf87b7de0466f6c6578706572696d656e74616cf50037a165627a7a723058205ff7a4cbcdc79e8c9c62bbd2951068499e5453956c84e74771ddcaf120de22760029",
  "source": "pragma solidity ^0.5.8;\nimport \"./Patient.sol\";\n\ncontract PatientFactory{\n\n    event _ContractCreation(address x);\n    constructor() public{\n        emit _ContractCreation(address(this));\n    }\n\n    event _PatientCreated(address Patient);\n    function newPatient(string memory _mnemonic,\n                        bytes32 _fname,\n                        bytes32 _lname,\n                        bytes32 _date_of_birth,\n                        bytes32 _ethnicity,\n                        bytes32 _patient_address) public{\n        Patient Patient = new Patient( _mnemonic,\n                                         _fname,\n                                         _lname,\n                                         _date_of_birth,\n                                         _ethnicity,\n                                         _patient_address);\n    emit _PatientCreated(address(Patient));\n\n    }\n}",
  "sourcePath": "/Users/othmanbichouna/Desktop/Projects/Ethereum/SBUHacks-Med-Ethereum/src/contracts/PatientFactory.sol",
  "compiler": {
    "name": "solc",
    "version": "0.5.8+commit.23d335f2.Emscripten.clang"
  },
  "schemaVersion": "3.0.16",
  "updatedAt": "2019-09-21T14:46:37.417Z",
  "devdoc": {
    "methods": {}
  },
  "userdoc": {
    "methods": {}
  }
}